:020000040800F2
:1000000000100020150A00089D090008A509000835
:10001000AD090008B5090008BD090008000000008E
:10002000000000000000000000000000C5090008FA
:10003000D109000800000000DD090008E9090008F6
:100040005D0A00085D0A00085D0A00085D0A0008F4
:100050005D0A00085D0A00085D0A00085D0A0008E4
:100060005D0A00085D0A00085D0A00085D0A0008D4
:100070005D0A00085D0A00085D0A00085D0A0008C4
:100080005D0A00085D0A00085D0A00080000000023
:100090000000000000000000000000005D0A0008F1
:1000A0005D0A00085D0A00085D0A00085D0A000894
:1000B000F50900085D0A00085D0A00085D0A0008ED
:1000C0005D0A000800000000000000005D0A000852
:1000D0005D0A00085D0A00085D0A00085D0A000864
:1000E0005D0A00085D0A00085D0A000800000000C3
:1000F0000000000000000000000000000000000000
:1001000000000000000000000000000000000000EF
:1001100000000000000000005D0A00085D0A000801
:1001200000000000000000000000000000000000CF
:1001300000000000000000000000000000000000BF
:1001400000000000000000000000000000000000AF
:10015000000000000000000000000000000000009F
:10016000000000000000000000000000000000008F
:10017000000000000000000000000000000000007F
:10018000000000000000000000000000000000006F
:10019000000000000000000000000000000000005F
:1001A000000000000000000000000000000000004F
:1001B000000000000000000000000000000000003F
:1001C0000000000000000000000000005FF808F1DF
:1001D00010B5054C237833B9044B13B10448AFF381
:1001E00000800123237010BD0C00002000000000DF
:1001F0005020000808B5034B1BB103490348AFF377
:10020000008008BD00000000100000205020000801
:1002100080B500AF00F0E8FA4FF47A71002000F0EA
:10022000EDFA00BF80BD0000B0B48FB000AF7860C1
:100230009A4B07F10C041D460FCD0FC40FCD0FC410
:1002400095E8030084E803007B689B0038333B4457
:1002500053F82C3C87F8373097F83730DB08DBB29F
:1002600003F00103DAB28E4B1A7097F837309B080F
:10027000DBB203F00103DAB28A4B1A7097F8373019
:100280005B08DBB203F00103DAB2874B1A7097F810
:10029000373003F00103DAB2844B1A70814B1A78BD
:1002A000824B1B781343DBB2002B0CBF01230023CE
:1002B000DBB21A467C4B1B7813437A4A11787B4A8F
:1002C00012780A40D2B21343754A12781343002BB6
:1002D00014BF01230023DAB2754B1A70714B1B78DF
:1002E000002B0CBF01230023DAB26F4B19786F4B40
:1002F0001B780B43DBB2002B0CBF01230023DBB2C6
:100300001343DBB21946684B1A78684B1B781340CD
:10031000DBB20B43002B14BF01230023DAB2654B81
:100320001A70614B1B78002B0CBF01230023DBB23A
:100330001A465E4B1B7813435A4A12781343002B1C
:1003400014BF01230023DAB25B4B1A70554B1A78A5
:10035000564B1B781343DBB2002B0CBF0123002349
:10036000DBB21A464F4B1B78002B0CBF0123002336
:10037000DBB219464C4B1B780B401A43494B1B7898
:100380001946494B1B78002B0CBF01230023DBB21D
:100390000B40464909780B401A43434B1B781946DA
:1003A000424B1B78002B0CBF01230023DBB20B4018
:1003B00013433B4A12781343002B14BF012300233D
:1003C000DAB23E4B1A70374B1A78384B1B7813430E
:1003D000DBB2002B0CBF01230023DBB21A46324BE9
:1003E0001B781946314B1B78002B0CBF01230023CF
:1003F000DBB20B401343002B14BF01230023DAB2FE
:100400002F4B1A70284B1A78284B1B781343DBB2FA
:10041000002B0CBF01230023DBB21A46214B1B78B3
:100420001946214B1B78002B0CBF01230023DBB2A4
:100430000B401A431B4B1B7819461C4B1B78002B97
:100440000CBF01230023DBB20B401343144A127884
:100450001343002B14BF01230023DAB2194B1A7087
:10046000104B1B78002B0CBF01230023DBB21A4674
:100470000D4B1B781A400B4B1B7819460A4B1B7807
:10048000002B0CBF01230023DBB20B401343044AB3
:1004900012781A43034B1B78194615E068200008B0
:1004A00028000020290000202A0000202B00002026
:1004B0002C0000202D0000202E0000202F00002006
:1004C00030000020310000200A4B1B78002B0CBFAD
:1004D00001230023DBB20B401343002B14BF012385
:1004E0000023DAB2044B1A7000BF3C37BD46B0BCE3
:1004F000704700BF2B0000203200002080B582B082
:1005000000AF78607868FFF78FFE274B1B7883F089
:100510000103DBB21A464FF40061244800F08AFD63
:10052000234B1B7883F00103DBB21A464FF4805152
:100530001E4800F07FFD1F4B1B7883F00103DBB2E8
:100540001A464FF40051194800F074FD1A4B1B78FD
:1005500083F00103DBB21A464FF48041134800F0E8
:1005600069FD164B1B7883F00103DBB21A464FF48A
:1005700000410E4800F05EFD114B1B7883F0010333
:10058000DBB21A4601210F4800F054FD0E4B1B78D8
:1005900083F00103DBB21A4602210A4800F04AFD4B
:1005A00000BF0837BD4680BD2C0000200008014078
:1005B0002D0000202E0000202F0000203000002001
:1005C00031000020000C01403200002080B500AF57
:1005D0000B4B1B88002B11D00A4B1B68092B02DD2B
:1005E000084B00221A60074B1B685A1C05490A6019
:1005F0001846FFF783FF024B00221A8000BF80BD20
:10060000800000203400002080B500AF00F027FA01
:1006100000F009F800F08EF800F040F8FFF7F8FD60
:10062000FFF7D4FFFCE780B590B000AF07F11803E7
:1006300028220021184601F0DFFC3B1D00221A6031
:100640005A609A60DA601A610223BB610123BB62BF
:100650001023FB6200237B6307F11803184600F0A8
:1006600001FD0346002B01D000F0B8F80F237B609A
:100670000023BB600023FB6000233B6100237B6100
:100680003B1D0021184600F06FFF0346002B01D0F0
:1006900000F0A4F800BF4037BD4680BD80B586B0ED
:1006A00000AF07F1080300221A605A609A60DA600E
:1006B0003B4600221A605A601D4B4FF080421A6080
:1006C0001B4B41F63F725A60194B00229A60184B3F
:1006D0000922DA60164B00221A61154B00229A613A
:1006E000134801F069F80346002B01D000F076F8BA
:1006F0004FF48053BB6007F1080319460C4801F022
:10070000F5F90346002B01D000F068F800233B60A8
:1007100000237B603B461946054801F0F5FB034684
:10072000002B01D000F05AF800BF1837BD4680BD3D
:100730003800002080B586B000AF07F10803002222
:100740001A605A609A60DA60214B9B69204A43F034
:10075000040393611E4B9B6903F004037B607B6879
:100760001B4B9B691A4A43F008039361184B9B6922
:1007700003F008033B603B6800224FF66001154818
:1007800000F058FC00220321134800F053FC4FF600
:100790006003BB600123FB6000233B6102237B619C
:1007A00007F1080319460B4800F0C0FA0323BB60A9
:1007B0000123FB6000233B6102237B6107F10803F7
:1007C0001946054800F0B2FA00BF1837BD4680BD93
:1007D0000010024000080140000C014080B400AF4E
:1007E00072B600BF00BFFDE780B500AF024801F060
:1007F00033F800BF80BD00BF3800002080B483B054
:1008000000AF03460A46FB711346BB80FB79BA88EA
:100810000C49A1FB0212D20891B20B4A22F8131024
:10082000FB790A4A002122F81310FA79FB7906496C
:1008300031F81210064A22F8131000BF0C37BD46DB
:1008400080BC7047CDCCCCCCA8000020800000201C
:100850009400002080B483B000AF0346FB71FB79A5
:10086000124A32F81330002B1BD0FB790F4A32F8B2
:100870001320013A91B20D4A22F81310FB790B4A6A
:1008800032F81330002B0CD1FB79094A012122F8F0
:100890001310FA79FB79074931F81210034A22F84C
:1008A000131000BF0C37BD4680BC70479400002079
:1008B00080000020A800002080B584B000AF7860E0
:1008C0007B681B68B3F1804F0DD10023FB6007E00C
:1008D000FB68DBB21846FFF7BDFFFB680133FB6026
:1008E000FB680A2BF4D900BF1037BD4680BD00005D
:1008F00080B485B000AF154B9B69144A43F00103E7
:100900009361124B9B6903F00103BB60BB680F4B03
:10091000DB690E4A43F08053D3610C4BDB6903F073
:1009200080537B607B680A4B5B68FB60FB6823F04D
:10093000E063FB60FB6843F08063FB60044AFB6894
:10094000536000BF1437BD4680BC704700100240A2
:100950000000014080B584B000AF78607B681B6800
:10096000B3F1804F13D10C4BDB690B4A43F0010309
:10097000D361094BDB6903F00103FB60FB680022D4
:1009800000211C2000F09BF91C2000F0B4F900BFEE
:100990001037BD4680BD00BF0010024080B400AFDC
:1009A00000BFFDE780B400AF00BFFDE780B400AF3B
:1009B00000BFFDE780B400AF00BFFDE780B400AF2B
:1009C00000BFFDE780B400AF00BFBD4680BC7047EC
:1009D00080B400AF00BFBD4680BC704780B400AF9C
:1009E00000BFBD4680BC704780B500AF00F074F812
:1009F00000BF80BD80B500AF024800F087FF00BF98
:100A000080BD00BF3800002080B400AF00BFBD46ED
:100A100080BC7047FFF7F8FF0B480C490C4A0023D5
:100A200002E0D458C4500433C4188C42F9D3094AA4
:100A3000094C002301E013600432A242FBD301F011
:100A4000E3FAFFF7E1FD7047000000200C000020F2
:100A5000C82000080C000020C0000020FEE780B580
:100A600000AF032000F020F90F2000F005F8FFF799
:100A70003FFF0023184680BD80B582B000AF78608C
:100A8000124B1A68124B1B7819464FF47A73B3FB5A
:100A9000F1F3B2FBF3F3184600F03BF90346002BE9
:100AA00001D001230EE07B680F2B0AD80022796861
:100AB0004FF0FF3000F003F9064A7B681360002313
:100AC00000E0012318460837BD4680BD0000002025
:100AD000080000200400002080B400AF054B1B7804
:100AE0001A46054B1B681344034A136000BFBD46FA
:100AF00080BC704708000020BC00002080B400AF1C
:100B0000024B1B681846BD4680BC7047BC000020E5
:100B100080B485B000AF78607B6803F00703FB60AA
:100B20000C4BDB68BB60BA684FF6FF031340BB6039
:100B3000FB681A02BB68134343F0BF6343F40033FE
:100B4000BB60044ABB68D36000BF1437BD4680BC9D
:100B5000704700BF00ED00E080B400AF044BDB68DD
:100B60001B0A03F007031846BD4680BC704700BF50
:100B700000ED00E080B483B000AF0346FB7197F94D
:100B80000730002B0BDBFB7903F01F02064997F9B6
:100B900007305B09012000FA02F241F8232000BF70
:100BA0000C37BD4680BC704700E100E080B483B0E4
:100BB00000AF03463960FB7197F90730002B0ADB61
:100BC0003B68DAB20C4997F907301201D2B20B44F4
:100BD00083F800230AE03B68DAB20849FB7903F0A6
:100BE0000F03043B1201D2B20B441A7600BF0C373C
:100BF000BD4680BC704700BF00E100E000ED00E0B2
:100C000080B489B000AFF860B9607A60FB6803F027
:100C10000703FB61FB69C3F10703042B28BF04230F
:100C2000BB61FB690433062B02D9FB69033B00E07F
:100C300000237B614FF0FF32BB6902FA03F3DA4312
:100C4000BB681A407B699A404FF0FF317B6901FA1B
:100C500003F3D9437B680B40134318462437BD4642
:100C600080BC704780B582B000AF78607B68013B84
:100C7000B3F1807F01D301230FE00A4A7B68013B77
:100C800053600F214FF0FF30FFF790FF054B00221C
:100C90009A60044B07221A60002318460837BD46A5
:100CA00080BD00BF10E000E080B582B000AF78608A
:100CB0007868FFF72DFF00BF0837BD4680BD80B5BF
:100CC00086B000AF0346B9607A60FB7300237B6196
:100CD000FFF742FF78617A68B9687869FFF790FF9B
:100CE000024697F90F3011461846FFF75FFF00BF25
:100CF0001837BD4680BD80B582B000AF0346FB719A
:100D000097F907301846FFF735FF00BF0837BD4693
:100D100080BD80B582B000AF78607868FFF7A2FF31
:100D2000034618460837BD4680BD000080B48BB02E
:100D300000AF7860396000237B6200233B6269E189
:100D400001227B6A02FA03F3FB613B681B68FA69C4
:100D50001340BB61BA69FB699A4240F058813B6815
:100D60005B689A4A93425ED0984A934275D8984AF3
:100D7000934258D0964A93426FD8964A934252D0A3
:100D8000944A934269D8944A93424CD0924A9342EF
:100D900063D8924A934246D0904A93425DD8122B30
:100DA0002AD8122B59D801A252F823F0270E000896
:100DB000010E0008130E0008550E00085B0E000817
:100DC0005B0E00085B0E00085B0E00085B0E00085F
:100DD0005B0E00085B0E00085B0E00085B0E00084F
:100DE0005B0E00085B0E00085B0E00085B0E00083F
:100DF000090E00081D0E0008794A934213D02CE01A
:100E00003B68DB683B6229E03B68DB6804333B629C
:100E100024E03B68DB6808333B621FE03B68DB682B
:100E20000C333B621AE03B689B68002B02D1042321
:100E30003B6213E03B689B68012B05D108233B62B2
:100E40007B68FA691A6109E008233B627B68FA69EA
:100E50005A6103E000233B6200E000BFBB69FF2B47
:100E600001D87B6801E07B6804337B61BB69FF2BA1
:100E700002D87B6A9B0002E07B6A083B9B003B61D7
:100E80007B691A680F213B6901FA03F3DB431A40BF
:100E9000396A3B6901FA03F31A437B691A603B68BC
:100EA0005B6803F08053002B00F0B1804D4B9B69D1
:100EB0004C4A43F0010393614A4B9B6903F00103E1
:100EC000BB60BB68484A7B6A9B08023352F82330F8
:100ED000FB607B6A03F003039B000F2202FA03F31B
:100EE000DB43FA681340FB607B68404A934213D0AF
:100EF0007B683F4A93420DD07B683E4A934207D0BD
:100F00007B683D4A934201D1032306E0042304E0B9
:100F1000022302E0012300E000237A6A02F00302C8
:100F200092009340FA681343FB602F497B6A9B0849
:100F30000233FA6841F823203B685B6803F48013AE
:100F4000002B06D02D4B9A682C49BB6913438B604C
:100F500006E02A4B9A68BB69DB43284913408B6043
:100F60003B685B6803F40013002B06D0234BDA6860
:100F70002249BB691343CB6006E0204BDA68BB69AA
:100F8000DB431E491340CB603B685B6803F40033CE
:100F9000002B06D0194B5A681849BB6913434B60A4
:100FA00006E0164B5A68BB69DB43144913404B609B
:100FB0003B685B6803F48033002B21D00F4B1A6829
:100FC0000E49BB6913430B6021E000BF00003210E3
:100FD000000031100000221000002110000012104B
:100FE0000000111000100240000001400008014004
:100FF000000C0140001001400014014000040140B9
:101000000B4B1A68BB69DB43094913400B607B6AD1
:1010100001337B623B681A687B6A22FA03F3002B78
:101020007FF48EAE00BF00BF2C37BD4680BC70473A
:101030000004014080B483B000AF78600B467B8031
:1010400013467B707B78002B03D07A887B681A610B
:1010500003E07B881A047B681A6100BF0C37BD4629
:1010600080BC704780B586B000AF78607B68002B8D
:1010700001D1012372E27B681B6803F00103002B9E
:1010800000F08780924B5B6803F00C03042B0CD0BC
:101090008F4B5B6803F00C03082B12D18C4B5B6801
:1010A00003F48033B3F5803F0BD1894B1B6803F405
:1010B0000033002B6CD07B685B68002B68D1012368
:1010C0004CE27B685B68B3F5803F06D1804B1B68C0
:1010D0007F4A43F4803313602EE07B685B68002B0B
:1010E0000CD17B4B1B687A4A23F480331360784B16
:1010F0001B68774A23F4802313601DE07B685B68DC
:10110000B3F5A02F0CD1724B1B68714A43F48023B6
:1011100013606F4B1B686E4A43F4803313600BE01F
:101120006B4B1B686A4A23F480331360684B1B685F
:10113000674A23F4802313607B685B68002B13D01D
:10114000FFF7DCFC386108E0FFF7D8FC02463B699A
:10115000D31A642B01D9032300E25D4B1B6803F40F
:101160000033002BF0D014E0FFF7C8FC386108E032
:10117000FFF7C4FC02463B69D31A642B01D9032351
:10118000ECE1534B1B6803F40033002BF0D100E07B
:1011900000BF7B681B6803F00203002B63D04C4B3D
:1011A0005B6803F00C03002B0BD0494B5B6803F02A
:1011B0000C03082B1CD1464B5B6803F48033002BD7
:1011C00016D1434B1B6803F00203002B05D07B684C
:1011D0001B69012B01D00123C0E13D4B1B6823F0AB
:1011E000F8027B685B69DB00394913430B603AE026
:1011F0007B681B69002B20D0364B01221A60FFF759
:101200007DFC386108E0FFF779FC02463B69D31AA0
:10121000022B01D90323A1E12D4B1B6803F002032C
:10122000002BF0D02A4B1B6823F0F8027B685B6927
:10123000DB00274913430B6015E0264B00221A60A0
:10124000FFF75CFC386108E0FFF758FC02463B6999
:10125000D31A022B01D9032380E11D4B1B6803F035
:101260000203002BF0D17B681B6803F00803002BFE
:101270003AD07B689B69002B19D0174B01221A606A
:10128000FFF73CFC386108E0FFF738FC02463B6999
:10129000D31A022B01D9032360E10D4B5B6A03F0E3
:1012A0000203002BF0D0012000F068FA1CE00A4B8A
:1012B00000221A60FFF722FC38610FE0FFF71EFCE6
:1012C00002463B69D31A022B08D9032346E100BF2B
:1012D000001002400000424280044242924B5B6A8E
:1012E00003F00203002BE9D17B681B6803F00403C1
:1012F000002B00F0A6800023FB758B4BDB6903F00D
:101300008053002B0DD1884BDB69874A43F0805313
:10131000D361854BDB6903F08053BB60BB6801235D
:10132000FB75824B1B6803F48073002B18D17F4B35
:101330001B687E4A43F480731360FFF7DFFB38615C
:1013400008E0FFF7DBFB02463B69D31A642B01D9A7
:10135000032303E1754B1B6803F48073002BF0D06B
:101360007B68DB68012B06D16F4B1B6A6E4A43F02A
:10137000010313622DE07B68DB68002B0CD16A4B04
:101380001B6A694A23F001031362674B1B6A664AB2
:1013900023F0040313621CE07B68DB68052B0CD18F
:1013A000614B1B6A604A43F0040313625E4B1B6A85
:1013B0005D4A43F0010313620BE05B4B1B6A5A4A20
:1013C00023F001031362584B1B6A574A23F00403AE
:1013D00013627B68DB68002B15D0FFF78FFB386149
:1013E0000AE0FFF78BFB02463B69D31A41F28832D1
:1013F000934201D90323B1E04B4B1B6A03F0020374
:10140000002BEED014E0FFF779FB38610AE0FFF71C
:1014100075FB02463B69D31A41F28832934201D9E7
:1014200003239BE0404B1B6A03F00203002BEED129
:10143000FB7D012B05D13C4BDB693B4A23F08053FC
:10144000D3617B68DB69002B00F08780364B5B68DB
:1014500003F00C03082B61D07B68DB69022B46D1BB
:10146000334B00221A60FFF749FB386108E0FFF7B1
:1014700045FB02463B69D31A022B01D903236DE0D9
:10148000294B1B6803F00073002BF0D17B681B6AAB
:10149000B3F5803F08D1244BDB6A23F00F027B6851
:1014A0009B6821491343CB621F4B5B6823F4741282
:1014B0007B68196A7B685B6A0B431B4913434B606B
:1014C0001B4B01221A60FFF719FB386108E0FFF798
:1014D00015FB02463B69D31A022B01D903233DE0D9
:1014E000114B1B6803F00073002BF0D035E0104B5C
:1014F00000221A60FFF702FB386108E0FFF7FEFAEE
:1015000002463B69D31A022B01D9032326E0064B7E
:101510001B6803F00073002BF0D11EE07B68DB69D1
:10152000012B07D1012319E0001002400070004098
:10153000600042420B4B5B68FB60FB6803F4803247
:101540007B681B6A9A4206D1FB6803F470127B68C1
:101550005B6A9A4201D0012300E000231846183745
:10156000BD4680BD0010024080B584B000AF7860F9
:1015700039607B68002B01D10123A0E07B681B68E8
:1015800003F00203002B20D07B681B6803F00403E8
:10159000002B05D04C4B5B684B4A43F4E06353602F
:1015A0007B681B6803F00803002B05D0464B5B6883
:1015B000454A43F460535360434B5B6823F0F002A9
:1015C0007B689B68404913434B607B681B6803F052
:1015D0000103002B40D07B685B68012B07D13A4B9D
:1015E0001B6803F40033002B15D1012367E07B68EF
:1015F0005B68022B07D1344B1B6803F00073002B90
:1016000009D101235BE0304B1B6803F00203002B80
:1016100001D1012353E02C4B5B6823F003027B686C
:101620005B68294913434B60FFF768FAF8600AE0EA
:10163000FFF764FA0246FB68D31A41F288329342FC
:1016400001D903233BE0204B5B6803F00C027B686D
:101650005B689B009A42EBD17B681B6803F0040334
:10166000002B08D0184B5B6823F4E0627B68DB68D2
:10167000154913434B607B681B6803F00803002B7C
:1016800009D0114B5B6823F460527B681B69DB0057
:101690000D4913434B6000F01FF802460A4B5B688C
:1016A0001B0903F00F030949CB5C22FA03F3084A34
:1016B0001360084B1B681846FFF7DEF90023184635
:1016C0001037BD4680BD00BF0010024090200008CA
:1016D000000000200400002080B487B000AF002389
:1016E000FB600023BB6000237B6100237B60002341
:1016F0003B611D4B5B68FB60FB6803F00C03042B34
:1017000002D0082B03D026E0184B3B6126E0FB6893
:101710009B0C03F00F03164AD35C7B60FB6803F459
:101720008033002B0FD0104BDB6A03F00F03114AFC
:10173000D35CBB607B680D4A03FB02F2BB68B2FB63
:10174000F3F37B6104E07B680B4A02FB03F37B61EC
:101750007B693B6102E0054B3B6100BF3B6918467A
:101760001C37BD4680BC70470010024000127A0052
:10177000A0200008B020000800093D0080B485B01A
:1017800000AF78600A4B1B680A4AA2FB03235B0A7E
:101790007A6802FB03F3FB6000BFFB685A1EFA6025
:1017A000002BF9D100BF00BF1437BD4680BC704785
:1017B00000000020D34D621080B582B000AF786089
:1017C0007B68002B01D1012341E07B6893F83D3019
:1017D000DBB2002B06D17B68002283F83C207868BE
:1017E000FFF7B8F87B68022283F83D207B681A680F
:1017F0007B6804331946104600F064FA7B680122C6
:1018000083F846207B68012283F83E207B68012212
:1018100083F83F207B68012283F840207B68012207
:1018200083F841207B68012283F842207B680122F3
:1018300083F843207B68012283F844207B680122DF
:1018400083F845207B68012283F83D200023184659
:101850000837BD4680BD000080B485B000AF786019
:101860007B6893F83D30DBB2012B01D001233FE0D0
:101870007B68022283F83D207B681B68DA687B68FE
:101880001B6842F00102DA607B681B681B4A9342C6
:1018900013D07B681B68B3F1804F0ED07B681B6848
:1018A000174A934209D07B681B68164A934204D0BA
:1018B0007B681B68144A934211D17B681B689B6844
:1018C00003F00703FB60FB68062B10D07B681B68E6
:1018D0001A687B681B6842F001021A6007E07B68A7
:1018E0001B681A687B681B6842F001021A600023BB
:1018F00018461437BD4680BC704700BF002C01401D
:1019000000040040000800400040014080B584B061
:1019100000AF78607B681B68DB68FB607B681B68D6
:101920001B69BB60BB6803F00203002B20D0FB687F
:1019300003F00203002B1BD07B681B686FF00202D0
:101940001A617B6801221A777B681B689B6903F028
:101950000303002B03D0786800F098F905E078685D
:1019600000F08BF9786800F09AF97B6800221A770A
:10197000BB6803F00403002B20D0FB6803F00403D2
:10198000002B1BD07B681B686FF004021A617B6818
:1019900002221A777B681B689B6903F44073002B53
:1019A00003D0786800F072F905E0786800F065F916
:1019B000786800F074F97B6800221A77BB6803F03E
:1019C0000803002B20D0FB6803F00803002B1BD07A
:1019D0007B681B686FF008021A617B6804221A7723
:1019E0007B681B68DB6903F00303002B03D0786876
:1019F00000F04CF905E0786800F03FF9786800F0F5
:101A00004EF97B6800221A77BB6803F01003002BA5
:101A100020D0FB6803F01003002B1BD07B681B68F1
:101A20006FF010021A617B6808221A777B681B68C6
:101A3000DB6903F44073002B03D0786800F026F9CB
:101A400005E0786800F019F9786800F028F97B68FB
:101A500000221A77BB6803F00103002B0CD0FB684F
:101A600003F00103002B07D07B681B686FF00102B5
:101A70001A617868FEF720FFBB6803F08003002B33
:101A80000CD0FB6803F08003002B07D07B681B6839
:101A90006FF080021A61786800F0A5FABB6803F065
:101AA0004003002B0CD0FB6803F04003002B07D051
:101AB0007B681B686FF040021A61786800F0F8F8E4
:101AC000BB6803F02003002B0CD0FB6803F020035D
:101AD000002B07D07B681B686FF020021A617868C2
:101AE00000F078FA00BF1037BD4680BD80B584B0E5
:101AF00000AF786039600023FB737B6893F83C305B
:101B0000012B01D10223B4E07B68012283F83C2041
:101B10007B68022283F83D207B681B689B68BB6062
:101B2000BB6823F07703BB60BB6823F47F43BB60D3
:101B30007B681B68BA689A603B681B68B3F5005FF6
:101B40003ED0B3F5005F00F28780B3F5805F00F010
:101B50008680B3F5805F7FD8702B1AD0702B7BD82E
:101B6000602B50D0602B77D8502B3CD0502B73D8A3
:101B7000402B58D0402B6FD8302B64D0302B6BD8F3
:101B8000202B60D0202B67D8002B5CD0102B5AD094
:101B900062E07B6818683B6899683B685A683B68F4
:101BA000DB6800F092F97B681B689B68BB60BB68D0
:101BB00043F07703BB607B681B68BA689A604FE0AC
:101BC0007B6818683B6899683B685A683B68DB68C3
:101BD00000F07BF97B681B689A687B681B6842F49D
:101BE00080429A603CE07B6818683B6859683B68B3
:101BF000DB681A4600F0F2F87B681B685021184633
:101C000000F049F92CE07B6818683B6859683B682C
:101C1000DB681A4600F010F97B681B6860211846E3
:101C200000F039F91CE07B6818683B6859683B682C
:101C3000DB681A4600F0D2F87B681B684021184622
:101C400000F029F90CE07B681A683B681B681946AC
:101C5000104600F020F903E00123FB7300E000BF11
:101C60007B68012283F83D207B68002283F83C20BA
:101C7000FB7B18461037BD4680BD80B483B000AFF3
:101C8000786000BF0C37BD4680BC704780B483B01D
:101C900000AF786000BF0C37BD4680BC704780B491
:101CA00083B000AF786000BF0C37BD4680BC704782
:101CB00080B483B000AF786000BF0C37BD4680BCF5
:101CC0007047000080B485B000AF786039607B68F1
:101CD0001B68FB607B683B4A93420BD07B68B3F187
:101CE000804F07D07B68384A934203D07B68374ADD
:101CF000934208D1FB6823F07003FB603B685B688C
:101D0000FA681343FB607B682E4A934217D07B68C6
:101D1000B3F1804F13D07B682B4A93420FD07B687E
:101D20002A4A93420BD07B68294A934207D07B68AA
:101D3000284A934203D07B68274A934208D1FB6824
:101D400023F44073FB603B68DB68FA681343FB6075
:101D5000FB6823F080023B685B691343FB607B6890
:101D6000FA681A603B689A687B68DA623B681A68AE
:101D70007B689A627B68134A93420BD07B68144A53
:101D8000934207D07B68134A934203D07B68124A80
:101D9000934203D13B681A697B681A637B6801220E
:101DA0005A617B681B6903F00103002B05D07B6837
:101DB0001B6923F001027B681A6100BF1437BD461E
:101DC00080BC7047002C0140000400400008004027
:101DD00000400140004401400048014080B487B009
:101DE00000AFF860B9607A60FB681B6A7B61FB68D2
:101DF0001B6A23F00102FB681A62FB689B693B6166
:101E00003B6923F0F0033B617B681B013A69134394
:101E10003B617B6923F00A037B617A69BB681343EA
:101E20007B61FB683A699A61FB687A691A6200BF54
:101E30001C37BD4680BC704780B487B000AFF860E7
:101E4000B9607A60FB681B6A7B61FB681B6A23F0E0
:101E50001002FB681A62FB689B693B613B6923F4D3
:101E600070433B617B681B033A6913433B617B69A9
:101E700023F0A0037B61BB681B017A6913437B617C
:101E8000FB683A699A61FB687A691A6200BF1C377D
:101E9000BD4680BC704780B485B000AF78603960C3
:101EA0007B689B68FB60FB6823F07003FB603A680B
:101EB000FB68134343F00703FB607B68FA689A6092
:101EC00000BF1437BD4680BC704780B487B000AFF8
:101ED000F860B9607A603B60FB689B687B617B69F6
:101EE00023F47F437B613B681A027B681A43BB681B
:101EF00013437A6913437B61FB687A699A6000BF78
:101F00001C37BD4680BC704780B485B000AF786098
:101F100039607B6893F83C30012B01D102234BE000
:101F20007B68012283F83C207B68022283F83D20F5
:101F30007B681B685B68FB607B681B689B68BB6099
:101F4000FB6823F07003FB603B681B68FA6813436F
:101F5000FB607B681B68FA685A607B681B68194ADB
:101F6000934213D07B681B68B3F1804F0ED07B681F
:101F70001B68154A934209D07B681B68134A934239
:101F800004D07B681B68124A93420CD1BB6823F0D3
:101F90008003BB603B685B68BA681343BB607B68C7
:101FA0001B68BA689A607B68012283F83D207B68D1
:101FB000002283F83C20002318461437BD4680BC1D
:101FC000704700BF002C01400004004000080040A2
:101FD0000040014080B483B000AF786000BF0C3790
:101FE000BD4680BC704780B483B000AF786000BF4E
:101FF0000C37BD4680BC704703460244934200D173
:10200000704703F8011BF9E770B500260C4D0D4C25
:10201000641BA410A64209D100F01AF800260A4D4C
:102020000A4C641BA410A64205D170BD55F8043BB0
:1020300098470136EEE755F8043B98470136F2E73A
:10204000C0200008C0200008C0200008C4200008EC
:10205000F8B500BFF8BC08BC9E467047F8B500BF95
:08206000F8BC08BC9E46704765
:102068000000000001000000020000000300000062
:102078000400000005000000060000000700000042
:102088000800000009000000000000000000000037
:1020980001020304060708090203040506070809E4
:1020A8000A0B0C0D0E0F1010010203040506070899
:0820B800090A0B0C0D0E0F10BC
:0420C000F50100081E
:0420C400D10100083E
:0C20C80000127A0010000000010000006F
:0400000508000A15D0
:00000001FF
